:020000040800F2
:10000000000800205D0E0008490E00084B0E000895
:1000100000000000000000000000000000000000E0
:100020000000000000000000000000004D0E00086D
:1000300000000000000000004F0E0008510E0008F4
:10004000DD0E0008DD0E0008DD0E0008DD0E0008E4
:10005000DD0E0008DD0E0008DD0E0008DD0E0008D4
:1000600000000000DD0E0008DD0E0008DD0E0008B7
:10007000DD0E0008DD0E000800000000DD0E0008A7
:100080000000000000000000000000000000000070
:10009000DD0E00080000000000000000DD0E00087A
:1000A00000000000DD0E000800000000000000005D
:1000B000DD0E0008DD0E000800000000000000005A
:1000C00010B5064C2378002B07D1054B002B02D02E
:1000D000044800E000BF0123237010BD1000002081
:1000E00000000000CC1B0008044B10B5002B03D00F
:1000F0000349044800E000BF10BDC04600000000F6
:1001000014000020CC1B0008002243088B4274D34B
:1001100003098B425FD3030A8B4244D3030B8B4208
:1001200028D3030C8B420DD3FF22090212BA030C11
:100130008B4202D31212090265D0030B8B4219D3F2
:1001400000E0090AC30B8B4201D3CB03C01A524112
:10015000830B8B4201D38B03C01A5241430B8B425A
:1001600001D34B03C01A5241030B8B4201D30B0343
:10017000C01A5241C30A8B4201D3CB02C01A52416A
:10018000830A8B4201D38B02C01A5241430A8B422D
:1001900001D34B02C01A5241030A8B4201D30B0216
:1001A000C01A5241CDD2C3098B4201D3CB01C01A30
:1001B000524183098B4201D38B01C01A524143093A
:1001C0008B4201D34B01C01A524103098B4201D328
:1001D0000B01C01A5241C3088B4201D3CB00C01A95
:1001E000524183088B4201D38B00C01A524143080D
:1001F0008B4201D34B00C01A5241411A00D2014632
:10020000524110467047FFE701B5002000F006F8A4
:1002100002BDC0460029F7D076E770477047C04658
:10022000002B11D1002A0FD1002900D1002802D0C3
:100230000021C943080007B4024802A140180290F7
:1002400003BDC046D9FFFFFF03B4684601B502985D
:1002500000F034F8019B9E4602B00CBC7047C046CB
:10026000F0B5CE46474680B5070099463B0C9C4604
:1002700013041B0C1D000E0061460004140C000C3E
:1002800045434B4360436143C0182C0C20188C46F7
:10029000834203D980235B029846C444494679438C
:1002A0007243030C63442D042D0CC918000440193B
:1002B0008918C0BCB946B046F0BDC046F0B5574637
:1002C0004E464546DE46E0B504000D00924699468E
:1002D00083B08B4230D82DD04946504600F0BAF852
:1002E00029000600200000F0B5F8331A9846203B9C
:1002F0009B4633D45A465346934042461F005346CA
:1003000093401E00AF423AD8AF4200D178E05B463E
:10031000A41BBD41002B00DA75E0002200230092EF
:10032000019301235A46934001930123424693408F
:10033000009328E08242CFD900220023009201934B
:100340000C9B002B01D01C605D600098019903B0EC
:10035000F0BCBB46B246A946A046F0BD42462023AB
:100360009B1A5246DA40414613004A468A4017001B
:1003700042461F43534693401E00AF42C4D9002259
:100380000023009201934346002BD9D0FB0772084B
:100390001A4346467B080EE0AB4201D1A2420CD87C
:1003A000A41A9D41012024196D410021013E241809
:1003B0004D41002E06D0AB42EED9013E24196D41CD
:1003C000002EF8D1009801995B4600196941002B75
:1003D00024DB2B005A464446D3402A00E2401C004E
:1003E0005B461500002B2ADB26009E4033002600CA
:1003F0004746BE403200801A9941009001919FE724
:10040000A342BCD883E74246202300219B1A002246
:10041000009101920122DA40019286E742462023B0
:100420009B1A2A0046469A402300F3404446134351
:100430002A00E2401C005B461500002BD4DA42463D
:100440002F002023260097409B1ADE403B003343B9
:10045000CDE7C04610B5002903D100F007F82030E1
:1004600002E0080000F002F810BDC0461C21012384
:100470001B04984201D3000C10391B0A984201D387
:10048000000A08391B09984201D30009043902A265
:10049000105C40187047C0460403020201010101CC
:1004A000000000000000000010B592B020220021E2
:1004B00006A801F083FB14220021684601F07EFBB0
:1004C0001749184A0B6801241A4080231B01134363
:1004D0000B60022305930E9300230F938023DB020E
:1004E000109380231022DB0305A80894099211932E
:1004F00001F024F8002801D072B6FEE70F23029025
:10050000009303900C3B049021006846019301F096
:1005100063FA002801D072B6FEE712B010BDC046E3
:1005200000700040FFE7FFFFF0B50427012402261A
:10053000C0258BB000F0F8FCFFF7B6FF14220021B5
:1005400005A801F03BFB484B2D02DA6A29003A432B
:10055000DA62DA6A45483A400292029ADA6A22433B
:10056000DA62DA6A22400392039ADA6A3243DA6282
:10057000DB6A002233400493049B00F041FFA0207B
:1005800000223B49C00500F03BFF0022C221394850
:1005900000F036FF05950025344805A90694079517
:1005A000089500F081FEA02005A9C00508960594D5
:1005B0000694079500F078FEA020032305A9C00546
:1005C000059608930694079500F06EFED423A020AC
:1005D000DB0005A9C005059306940795089500F072
:1005E00063FEC22305A92348059306940795089541
:1005F00000F05AFE8020400000F008FF80208000BC
:1006000000F004FF0822290005A801F0D7FAC22350
:10061000194EFF33736233002C331D70174B3000BB
:10062000336080233584DB05F563B563B5623563DC
:1006300075637360B560F56034617761B561F561CC
:1006400000F0C0FCA84201D072B6FEE70C4B3000AF
:100650000593802305A95B01069300F08DFD0190B1
:1006600000280FD072B6FEE70010024000080050CC
:10067000A3060000000400503C00002000240140BC
:1006800010000010A02022002100C00500F0B8FEDC
:1006900022004021EF4800F0B3FE9620400000F019
:1006A00069FCA02022002021C00500F0A9FE9620B0
:1006B000400000F05FFCA02022008021C00500F077
:1006C0009FFE9620400000F055FC8021A0202200D3
:1006D0008900C00500F094FE9620400000F04AFC1E
:1006E00022000221DB4800F08BFE9620400000F043
:1006F00041FC80212200C901D74800F081FE9620EC
:10070000400000F037FC22008021D24800F078FE43
:100710009620400000F02EFC8021A0202200C9007D
:10072000C00500F06DFE9620400000F023FC802103
:1007300022000902C84800F063FEFA20800000F0A1
:1007400019FC4021019AC34800F05AFEA020202144
:10075000019AC00500F054FEA0208021019AC00536
:1007600000F04EFE8021A020019A8900C00500F013
:1007700047FE0221019AB74800F042FE8021019A0B
:10078000B548C90100F03CFE8021019AB14800F053
:1007900037FE8021A020019AC900C00500F030FE7C
:1007A0008021019A0902AC4800F02AFEFA2040009C
:1007B00000F0E0FBA020A94B22002100A025C005ED
:1007C0001C60802600F01CFEED052200022128009E
:1007D00000F016FE002240219E4800F011FE00228B
:1007E0002021280000F00CFE00223100280000F03B
:1007F00007FE802100222800890000F001FE00226F
:100800000221944800F0FCFD802100229248C90199
:1008100000F0F6FD002231008E4800F0F1FD80214D
:1008200000222800C90000F0EBFD802100228A4848
:10083000090200F0E5FD01220023894F386879683C
:1008400080185941002338607960864AFFF7E8FC38
:10085000854B1870854B1B78042B09D1824B019A6C
:100860001A70002200233A607B60804B019A1A7054
:1008700000220221280000F0C3FD7B4B1A78122AC7
:1008800024D87B4B2700D3409F431FD12200402117
:10089000704800F0B5FD3A002021280000F0B0FDBE
:1008A0003A003100280000F0ABFD80213A0028001A
:1008B000890000F0A5FD3A000221664800F0A0FD85
:1008C00080213A006448C90100F09AFD664B1A780D
:1008D000132A24D8674B2700D3409F431FD13A00E7
:1008E00040215C4800F08CFD22002021280000F00F
:1008F00087FD3A003100280000F082FD80213A0097
:100900002800890000F07CFD3A000221514800F0E7
:1009100077FD80213A005048C90100F071FD524B2B
:100920001A78142A35D8544B2700D3409F4330D12E
:100930003A004021474800F063FD3A00202128009A
:1009400000F05EFD22003100280000F059FD8021FA
:100950003A002800890000F053FD3A0002213D488A
:1009600000F04EFD80213A003B48C90100F048FDEF
:100970003A003100374800F043FD80213A0028005A
:10098000C90000F03DFD80213A003348090200F023
:1009900037FD354B1A78152A35D8384B2700D34008
:1009A0009F4330D13A0040212A4800F029FD3A0007
:1009B0002021280000F024FD3A003100280000F03A
:1009C0001FFD802122002800890000F019FD3A0057
:1009D0000221204800F014FD80213A001E48C90180
:1009E00000F00EFD3A0031001A4800F009FD8021A8
:1009F0003A002800C90000F003FD80213A001648A3
:100A0000090200F0FDFC184B1A78162A4FD81C4B2F
:100A10002700D3409F434AD13A0040210D4800F0BF
:100A2000EFFC3A002021280000F0EAFC3A003100F7
:100A3000280000F0E5FC80213A002800890000F041
:100A4000DFFC22000221034800F0DAFC80213A009A
:100A500018E0C04600040050000800503800002094
:100A6000300000201027000099000020980000208E
:100A70004110040082200800044110000882200078
:100A800010044100CA48C90100F0BAFC3A00310024
:100A9000C84800F0B5FC80213A002800C90000F0E9
:100AA000AFFC80213A00C248090200F0A9FCC24B09
:100AB0001A78172A35D8C14B2700D3409F4330D12D
:100AC0003A004021BB4800F09BFC3A00202128005E
:100AD00000F096FC3A003100280000F091FC8021E3
:100AE0003A002800890000F08BFC3A000221B1484E
:100AF00000F086FC80212200AD48C90100F080FC96
:100B00003A003100AB4800F07BFC80213A0028001D
:100B1000C90000F075FC80213A00A548090200F0E8
:100B20006FFCA54B1B78063B052B32D8A44B00224B
:100B30004021A0481C7000F063FC00222021280006
:100B400000F05EFC00223100280000F059FC8021FA
:100B500000222800890000F053FC00220221954861
:100B600000F04EFC802100229148C90100F048FCB1
:100B7000012231008F4800F043FC80210022280030
:100B8000C90000F03DFC802100228948090200F0E4
:100B900037FC894B1B780C3B052B33D80222884B42
:100BA00040211A708348002200F02AFC00222021F4
:100BB000280000F025FC00223100280000F020FC75
:100BC000802100222800890000F01AFC0022022166
:100BD000784800F015FC802100227548C90100F01A
:100BE0000FFC22003100734800F00AFC8021220033
:100BF0002800C90000F004FC802100226C48090292
:100C000000F0FEFB6C4B1B78123B052B33D8032303
:100C10006B4A402113706748002200F0F1FB00226C
:100C20002021280000F0ECFB00223100280000F019
:100C3000E7FB802100222800890000F0E1FB002270
:100C400002215C4800F0DCFB802100225848C901E9
:100C500000F0D6FB22003100564800F0D1FB802185
:100C600022002800C90000F0CBFB80212200504860
:100C7000090200F0C5FB504B1B78182B00D0A4E5EF
:100C8000220040214B4800F0BBFB2200202128001D
:100C900000F0B6FB22003100280000F0B1FB8021FB
:100CA00022002800890000F0ABFB2200022141480D
:100CB00000F0A6FB802122003D48C90100F0A0FB06
:100CC000220031003B4800F09BFB802122002800DD
:100CD000C90000F095FB802122003548090200F090
:100CE0008FFB00224021334800F08AFB00222021A4
:100CF000280000F085FB00223100280000F080FB76
:100D0000802100222800890000F07AFB00220221C5
:100D1000284800F075FB802100222548C90100F019
:100D20006FFB00223100234800F06AFB8021002283
:100D30002800C90000F064FB802100221C48090241
:100D400000F05EFB220040211A4800F059FB22000F
:100D50002021280000F054FB22003100280000F080
:100D60004FFB802122002800890000F049FB22006F
:100D70000221104800F044FB802122000C48C901E8
:100D800000F03EFB220031000A4800F039FB8021D0
:100D900022002800C90000F033FB80212200044813
:100DA000090200F02DFB0423054A13700DE5C0462F
:100DB0000008005000040050990000202008820024
:100DC00098000020002307B501220193084B6846D4
:100DD000596B0A435A638022996B52050A439A63FE
:100DE000C023009300F020FB00F058FB07BDC04675
:100DF0000010024010B5040086B01422002101A8A2
:100E000000F0DCFE0E4B22689A4216D180220D4B78
:100E10009200596BA0200A4301215A63DA6AC00587
:100E20000A43DA62DB6A0B400093009B102301A99E
:100E300001930D3B029300F037FA06B010BDC04697
:100E40000024014000100240FEE7FEE770477047B3
:100E500010B500F07DF810BD7047000013488546BE
:100E600013480168090E134A914205D112481349EB
:100E7000016013481349016013481449144A0023C0
:100E800002E0D458C4500433C4188C42F9D3114A38
:100E9000114C002301E013600432A242FBD3FFF7A0
:100EA000DBFF00F067FEFFF73FFBFEE700080020D6
:100EB000040000001F000000341002400100000088
:100EC0000000014000000000000000200C00002095
:100ED000101C000810000020A0000020FEE7000009
:100EE00070B50500FA200D4B80001978FFF70CF95A
:100EF0000B4B01001868FFF707F900F0BBF904007D
:100F00000120002C09D1032D07D802382200290026
:100F100000F086F92000034B1D6070BD0400002026
:100F200000000020080000204023084A10B5116886
:100F300003200B431360FFF7D3FF041E03D1FFF719
:100F400041FF200010BD0124FBE7C0460020024005
:100F5000034A044B11681B785B1813607047C04646
:100F60009C00002004000020014B18687047C04618
:100F70009C00002070B50400FFF7F6FF0500631C1D
:100F800002D0044B1B78E418FFF7EEFF401BA04291
:100F9000FAD370BD04000020084B13B504000849C3
:100FA0001868FFF7B1F844430194019B002B00D16E
:100FB00013BD019B013B0193F7E7C04600000020F1
:100FC00040420F0070B504000120002C1BD0636D5F
:100FD000002B06D122005032A36520001370FFF7CA
:100FE00009FF636DDB0606D42368042299680800B4
:100FF0001040114208D01023626D01201343636535
:1010000000235034237070BD626D55491140022297
:101010000A436265032299681140524A012902D1AC
:101020001D680D4219D180266168F6054D006D08D6
:10103000B54203D080252D06A94276D11D69AD00A9
:10104000AD081D611D69294319611825D968A94397
:10105000D960D968A5682943D9601168424D2940F3
:101060001160616B156849062943116080229968F7
:101070005205114202D199680A439A60DA683B49E5
:101080000A402169DA60DD68E268022900D10420A3
:10109000266B611C32432A43A569C97FAD032A43ED
:1010A000E569ED032A434D032A4325002C352D78AD
:1010B0006D002A430243C220DA60626AFF30824236
:1010C00004D0A56AD8682A430243DA60A21CD27F02
:1010D000012A06D1002934D18022D96852020A435C
:1010E000DA60E16B1A69012933D12148656C02404D
:1010F0001A61226C18692A43A56C2A4302431A61BB
:101100001A691143196107215A6900208A435A61FB
:101110005A69A16B0A435A610322A065636D934328
:101120001A000123134363656DE71D69114EAD007D
:10113000AD081D61156835401560156829431160BB
:1011400083E72021606D01436165A16D0A43A265BB
:10115000C7E701210A42D6D01A698A431A61D2E749
:10116000FDFEFFFF08270140FFFFFFFD1902FEFF04
:1011700003FCFFFFFFFFC3FFF8B5040050342278E3
:1011800003000D000220012A0BD0013820701A68DC
:101190009168490706D52022596D0A435A650023F4
:1011A0002370F8BD80232868194E6F684103DB0265
:1011B000490B0340B74219D0906A01439162002B5A
:1011C00008D08023134A1B0411680A200B431360C4
:1011D000FFF7E2FE2B689B0305D580230D4ADB0356
:1011E00011680B43136000202070DAE7956A8D4385
:1011F0009562002B04D0074A074913680B4013601F
:101200008303F0D5034A054913680B40EAE7C0465B
:101210000110000008270140FFFF7FFFFFFFBFFF15
:1012200030B5FF2503242A000440E400A2408901D0
:101230002940D243A140C3B200280ADBC0240B4B93
:1012400080088000C018A40003591A4011430151BE
:1012500030BD0F200340083B05489B089B001B182E
:10126000D86902401143D961F2E7C04600E100E0CD
:1012700000ED00E08022431E5204012093420DD273
:10128000C021074A07485360036A09061B021B0A6C
:101290000B43036200200723906013607047C04631
:1012A00010E000E000ED00E00023F0B585B00A6832
:1012B0001400DC4001D105B0F0BD012514009D40B3
:1012C0002C4001942A4200D18DE04A685E00944689
:1012D0000322644622400324B440E4430294541E93
:1012E000012C2AD88768029C2740CC68B4403C4334
:1012F000846044680127AC432500644624093C40CF
:101300009C402C434460C568029C25408C68B440D6
:101310002C43C460022A12D1DC080725A40004195A
:10132000276A03940F241D40AD00AC40A7430C690D
:10133000AC402743039C276201E0032AE3D1046801
:10134000029DB24025402C0014430460C024624634
:10135000A402224247D00125244CA027626BFF053E
:101360002A436263224A9C08A400A4180F22023573
:101370001D40AD00AA40A66896430022B84208D09E
:101380001C4F0132B84204D01B4F0132B84200D08A
:101390000432AA4067463243A260184A019C16688C
:1013A000019DE4433543FF0301D4350025406746E2
:1013B00015605668019D3543BF0301D435002540B3
:1013C000674655609668019D3543FF0201D435009C
:1013D000254067469560D568019E2E43BF0201D423
:1013E00025402E00D660013361E7C0460010024060
:1013F00000000140000400500008005000040140BB
:10140000002A01D0816170478162FCE70122044912
:101410004B6B1A434A63034A536803435360704754
:101420000010024000000140E021194A13688B437C
:1014300001680B431360174B174A596811405960F4
:10144000196811401960D9681140D96099680A403B
:1014500080219A60426849020A4202D0186801431A
:101460001960910304D580215868490201435960ED
:10147000D10704D5802198684902014399609207F9
:1014800004D58022D96852020A43DA607047C04608
:101490000070004000040140FFFFFEFF1023024ADD
:1014A00011680B4313607047007000400C221D4B05
:1014B00070B5DC682240082A31D00C2A09D0042AF1
:1014C00025D11868184BC006C0171840174BC01814
:1014D00070BDA2021648120F805C80222402D968D7
:1014E000A40F52020134114209D0124A00230021F4
:1014F000FEF7B6FE22000023FEF792FEE8E71A6828
:1015000010231A4201D00C4AF0E7084AEEE7802087
:101510005B6800021B045B0F01339840D8E7054865
:10152000D6E7C0460010024000E548FF0024F40062
:10153000F41B000800127A0000093D00F0B5050018
:1015400085B0002856D00C23B64C0268E668E768E0
:101550001E4080235B0219001F40D2073ED42B6837
:101560009B0700D587E02B68DB0629D5002E00D02D
:10157000E0E023689B0502D5AB69002B3AD0626896
:10158000A9492B6A0A401A4362606168EA69090244
:10159000090A12060A43626080225B0B01331202C1
:1015A0009A401300E1680A06A049120F8A5CD340F2
:1015B0009F4A13609F4B1868FFF792FC002830D1B8
:1015C0002B681B0700D5ECE02B685B0700D50EE10C
:1015D0006B6A002B00D092E1002022E0082E03D09D
:1015E0000C2E09D1002F07D023689B03B7D56B6859
:1015F000002BB4D1012014E06A688A4213D122681A
:1016000013432360FFF7B0FC00908022236892020E
:101610001342A4D1FFF7A8FC009BC01A6428F4D998
:10162000032005B0F0BDA021C9028A4205D1802265
:101630002168D2020A432260E1E721687E48014026
:10164000216021680B400393039B7C4923680B4076
:101650002360002AD6D1FFF787FC00908022236800
:101660009202134200D17AE7FFF77EFC009BC01A7A
:101670006428F3D9D4E72022EB68134203D0216811
:10168000934311432160042E03D00C2E24D1002F4C
:1016900022D12268520701D5002BABD061682A699C
:1016A0006748120201400A430921626022688A43A6
:1016B00013432360FFF7FAFEE3685C4A1B061B0F27
:1016C000D35CD8405A4B18605A4B1868FFF708FC97
:1016D000002800D147E7A4E7002B19D00921226890
:1016E0008A4313432360FFF73FFC0700042223686B
:1016F000134207D062682B6951491B020A40134309
:10170000636030E7FFF730FCC01B0228EED987E7A3
:101710000122236893432360FFF726FC070004227D
:101720002368134200D11EE7FFF71EFCC01B0228EE
:10173000F5D975E7AB69002B20D0802322685B00C8
:1017400013432360FFF710FC0700802223689200F8
:1017500013420DD06368344A13402A6A134363600E
:101760006268EB6912021B06120A1343636027E7E3
:10177000FFF7FAFBC01B0228E7D951E72368314A7B
:1017800013402360FFF7F0FB0700802223689200DC
:10179000134200D114E7FFF7E7FBC01B0228F4D97E
:1017A0003EE76A690123002A10D0226D13432365A6
:1017B000FFF7DAFB07000222236D134200D003E794
:1017C000FFF7D2FBC01B0228F5D929E7226D9A4307
:1017D0002265FFF7C9FB07000222236D134200D1E7
:1017E000F2E6FFF7C1FBC01B0228F5D918E78023FA
:1017F0000021A26B5B0500911A4204D1A26B134336
:10180000A3630123009380220F4F52003B681342D1
:101810001CD08022AB68520093422BD1226D13431F
:1018200023654CE000100240FF1FFFFFE41B00088F
:101830000000002008000020FFFFFEFFFFFFFBFF6D
:10184000FFE0FFFFFFFEFFFF0070004080223B68CB
:10185000520013433B60FFF787FB019080223B68F7
:1018600052001342D5D1FFF77FFB019BC01A6428B9
:10187000F4D9D5E6002B16D1236D514A13402365C8
:10188000236D504A13402365FFF76EFB070080224B
:10189000236D920013421AD0FFF766FB4A4BC01B20
:1018A0009842F4D9BCE6A021C9008B4218D180230C
:1018B000216DDB000B432365236D1A432265FFF77F
:1018C00053FB07008022236D9200134210D0009B2F
:1018D000012B00D07CE6A36B3C4A1340A36377E660
:1018E000236D374A13402365236D364A134097E72B
:1018F000FFF73AFB344BC01B9842E3D990E60C2E1D
:1019000043D0334A022B2ED1236880271340236013
:10191000FFF72AFB0600BF0423683B421DD1E96A9A
:10192000AB6AE2680B432B4980260A4013432A6BBB
:10193000B6041343E360802322685B0413432360EF
:10194000FFF712FB05002368334200D044E6FFF79F
:101950000BFB401B0228F6D962E6FFF705FB801B54
:101960000228D9D95CE62368802613402360FFF75C
:10197000FBFA0500B6042368334200D12CE6FFF7DA
:10198000F3FA401B0228F6D94AE61800012B00D1D1
:1019900047E68022E368A96A52021A408A4200D0D0
:1019A00028E6F022E96A92031A408A4200D021E632
:1019B000C022120413402A6B934200D10CE619E6B0
:1019C000FFFEFFFFFFFBFFFF88130000FFFFFFEF9D
:1019D000FFFFFFFEFFFF02FFF7B5041E019101D1DB
:1019E0000120FEBD01255B4E019A33682B409342D6
:1019F00031D32268930743D4D30749D401253368F0
:101A0000019A2B40934209D93368AB433360FFF707
:101A1000ABFA070033682B4200D08CE022684E4DB1
:101A2000530700D58FE0130706D5E96823694B4AB1
:101A3000DB000A401343EB60FFF738FDEB68484AD0
:101A40001B061B0FD35CD840464B1860464B1868EA
:101A5000FFF746FAC5E73368019AAB431343336097
:101A6000FFF782FA07003368019A2B409342C0D0F7
:101A7000FFF77AFA3D4BC01B9842F4D90320B0E738
:101A8000F0203549CB688343A0680343CB60B3E7BC
:101A9000314D62682B68022A18D19B03A0D503211F
:101AA000EB688B431343EB60FFF75EFA6368070054
:101AB000022B18D10C22EB681340082B9ED0FFF7A5
:101AC00053FA2A4BC01B9842F4D9D7E7032A02D114
:101AD0009B01E4D484E7012A02D15B07DFD47FE7CE
:101AE0009B05DCD47CE7032B0BD10C22EB68134065
:101AF000934283D0FFF738FA1C4BC01B9842F4D9AD
:101B0000BCE7012B11D00C22EB68134200D175E722
:101B1000FFF72AFA154BC01B9842F4D9AEE7FFF73E
:101B200023FA124BC01B9842A8D80C22EB68134032
:101B3000042BF4D162E7FFF717FA0C4BC01B984255
:101B400000D867E79AE7EB6809490B40E1680B4367
:101B5000EB6068E70020024000100240FFC7FFFF73
:101B6000E41B00080000002008000020881300008B
:101B7000FFF8FFFF70B500260C4D0D4C641BA41040
:101B8000A64209D1002600F021F80A4D0A4C641B38
:101B9000A410A64205D170BDB300EB58984701369A
:101BA000EEE7B300EB5898470136F2E7081C00084F
:101BB000081C0008081C00080C1C00080300821800
:101BC000934200D1704719700133F9E7F8B5C04668
:101BD000F8BC08BC9E467047F8B5C046F8BC08BCC7
:041BE0009E46704766
:101BE40000000000000000000102030406070809C9
:0C1BF400030406080C101820300000004C
:081C0000BCE6FF7F01000000BB
:041C0800E9000008E7
:041C0C00C10000080B
:0C1C1000000020000100000004000000A3
:0400000508000E5D84
:00000001FF
